{
  "_format": "hh-sol-artifact-1",
  "contractName": "OverbidBaseFactory",
  "sourceName": "contracts/OverbidBaseFactory.sol",
  "abi": [
    {
      "inputs": [
        {
          "internalType": "uint256",
          "name": "_price",
          "type": "uint256"
        },
        {
          "internalType": "contract BidBase",
          "name": "_bid",
          "type": "address"
        }
      ],
      "name": "deploy",
      "outputs": [],
      "stateMutability": "nonpayable",
      "type": "function"
    }
  ],
  "bytecode": "0x608060405234801561001057600080fd5b506102c4806100206000396000f3fe608060405234801561001057600080fd5b506004361061002b5760003560e01c8063df02995d14610030575b600080fd5b61005c6004803603604081101561004657600080fd5b50803590602001356001600160a01b031661005e565b005b610068828261006c565b5050565b600082116100c1576040805162461bcd60e51b815260206004820152601c60248201527f5072696365206d7573742062652067726561746572207468616e203000000000604482015290519081900360640190fd5b60008282336040516100d29061017c565b9283526001600160a01b039182166020840152166040808301919091525190819003606001906000f08015801561010d573d6000803e3d6000fd5b509050816001600160a01b031663e50ff99c826040518263ffffffff1660e01b815260040180826001600160a01b03168152602001915050600060405180830381600087803b15801561015f57600080fd5b505af1158015610173573d6000803e3d6000fd5b50505050505050565b6101058061018a8339019056fe608060405234801561001057600080fd5b506040516101053803806101058339818101604052606081101561003357600080fd5b5080516020820151604090920151600091909155600180546001600160a01b039384166001600160a01b031991821617909155600280549390921692169190911790556081806100846000396000f3fe6080604052348015600f57600080fd5b506004361060285760003560e01c8063a035b1fe14602d575b600080fd5b60336045565b60408051918252519081900360200190f35b6000548156fea2646970667358221220afd0d1167a39523eac31e9aec8f09fdd129977c3f59ad0650f946af8988cfcaa64736f6c63430007030033a264697066735822122038cd66eb904c2895a9316d9970e024b17e293a54e3abe412f2fbc55dbf3767c464736f6c63430007030033",
  "linkReferences": {},
  "deployedLinkReferences": {}
}