{
  "contracts/BidFactory.sol": {
    "BidFactory": {
      "abi": [
        {
          "anonymous": false,
          "inputs": [
            {
              "indexed": false,
              "internalType": "contract BidBase",
              "name": "bid",
              "type": "address"
            }
          ],
          "name": "BidCreated",
          "type": "event"
        },
        {
          "inputs": [
            {
              "internalType": "uint256",
              "name": "",
              "type": "uint256"
            }
          ],
          "name": "bidToOwner",
          "outputs": [
            {
              "internalType": "address",
              "name": "",
              "type": "address"
            }
          ],
          "stateMutability": "view",
          "type": "function"
        },
        {
          "inputs": [
            {
              "internalType": "uint256",
              "name": "",
              "type": "uint256"
            }
          ],
          "name": "bidsAdresses",
          "outputs": [
            {
              "internalType": "contract BidBase",
              "name": "",
              "type": "address"
            }
          ],
          "stateMutability": "view",
          "type": "function"
        },
        {
          "inputs": [
            {
              "internalType": "string",
              "name": "_name",
              "type": "string"
            }
          ],
          "name": "deploy",
          "outputs": [],
          "stateMutability": "nonpayable",
          "type": "function"
        },
        {
          "inputs": [
            {
              "internalType": "address",
              "name": "bidAddress",
              "type": "address"
            }
          ],
          "name": "getBid",
          "outputs": [
            {
              "internalType": "string",
              "name": "name",
              "type": "string"
            },
            {
              "internalType": "uint32",
              "name": "creationDate",
              "type": "uint32"
            },
            {
              "internalType": "address",
              "name": "owner",
              "type": "address"
            },
            {
              "internalType": "uint256",
              "name": "highestPrice",
              "type": "uint256"
            }
          ],
          "stateMutability": "view",
          "type": "function"
        },
        {
          "inputs": [],
          "name": "getBids",
          "outputs": [
            {
              "internalType": "contract BidBase[]",
              "name": "",
              "type": "address[]"
            }
          ],
          "stateMutability": "view",
          "type": "function"
        }
      ],
      "evm": {
        "bytecode": {
          "linkReferences": {},
          "object": "608060405234801561001057600080fd5b50610e10806100206000396000f3fe608060405234801561001057600080fd5b50600436106100575760003560e01c8063b81c78ec1461005c578063ba7d9743146100b4578063c7602316146100ed578063c8b342ab14610195578063dd5b627314610257575b600080fd5b610064610274565b60408051602080825283518183015283519192839290830191858101910280838360005b838110156100a0578181015183820152602001610088565b505050509050019250505060405180910390f35b6100d1600480360360208110156100ca57600080fd5b50356102d6565b604080516001600160a01b039092168252519081900360200190f35b6101936004803603602081101561010357600080fd5b81019060208101813564010000000081111561011e57600080fd5b82018360208201111561013057600080fd5b8035906020019184600183028401116401000000008311171561015257600080fd5b91908080601f0160208091040260200160405190810160405280939291908181526020018383808284376000920191909152509295506102fd945050505050565b005b6101bb600480360360208110156101ab57600080fd5b50356001600160a01b0316610309565b60405180806020018563ffffffff168152602001846001600160a01b03168152602001838152602001828103825286818151815260200191508051906020019080838360005b83811015610219578181015183820152602001610201565b50505050905090810190601f1680156102465780820380516001836020036101000a031916815260200191505b509550505050505060405180910390f35b6100d16004803603602081101561026d57600080fd5b50356104c0565b606060008054806020026020016040519081016040528092919081815260200182805480156102cc57602002820191906000526020600020905b81546001600160a01b031681526001909101906020018083116102ae575b5050505050905090565b600081815481106102e357fe5b6000918252602090912001546001600160a01b0316905081565b610306816104db565b50565b606060008080805b6000548110156104b757856001600160a01b03166000828154811061033257fe5b6000918252602090912001546001600160a01b031614156104af576000818154811061035a57fe5b600091825260208220015460408051631b80ac7560e11b815290516001600160a01b039092169263370158ea92600480840193829003018186803b1580156103a157600080fd5b505afa1580156103b5573d6000803e3d6000fd5b505050506040513d6000823e601f3d908101601f1916820160405260808110156103de57600080fd5b81019080805160405193929190846401000000008211156103fe57600080fd5b90830190602082018581111561041357600080fd5b825164010000000081118282018810171561042d57600080fd5b82525081516020918201929091019080838360005b8381101561045a578181015183820152602001610442565b50505050905090810190601f1680156104875780820380516001836020036101000a031916815260200191505b506040908152602082015190820151606090920151949950975095509193506104b992505050565b600101610311565b505b9193509193565b6001602052600090815260409020546001600160a01b031681565b60008142336040516104ec90610649565b80806020018463ffffffff168152602001836001600160a01b03168152602001828103825285818151815260200191508051906020019080838360005b83811015610541578181015183820152602001610529565b50505050905090810190601f16801561056e5780820380516001836020036101000a031916815260200191505b50945050505050604051809103906000f080158015610591573d6000803e3d6000fd5b5060008054600180820183557f290decd9548b62a8d60345a988386fc84ba6bc95484008f6362f93160ef3e56390910180546001600160a01b03199081166001600160a01b038616908117909255835460001901808552602084815260408087208054339516851790559286526002815294829020805490940190935580519182525193945090927ffd0d87c99f5a790a851fd21b54af52a22bf2ce586122ee5594770802f22843ad929181900390910190a1505050565b610784806106578339019056fe608060405234801561001057600080fd5b506040516107843803806107848339818101604052606081101561003357600080fd5b810190808051604051939291908464010000000082111561005357600080fd5b90830190602082018581111561006857600080fd5b825164010000000081118282018810171561008257600080fd5b82525081516020918201929091019080838360005b838110156100af578181015183820152602001610097565b50505050905090810190601f1680156100dc5780820380516001836020036101000a031916815260200191505b5060409081526020828101519290910151855192945092506101039160009186019061014d565b50600180546001600160a01b0390921664010000000002600160201b600160c01b031963ffffffff90941663ffffffff1990931692909217929092161790555060006003556101e0565b828054600181600116156101000203166002900490600052602060002090601f016020900481019282601f1061018e57805160ff19168380011785556101bb565b828001600101855582156101bb579182015b828111156101bb5782518255916020019190600101906101a0565b506101c79291506101cb565b5090565b5b808211156101c757600081556001016101cc565b610595806101ef6000396000f3fe608060405234801561001057600080fd5b506004361061007d5760003560e01c8063370158ea1161005b578063370158ea1461013a5780638da5cb5b146101de578063e50ff99c14610202578063f721fa5a1461022a5761007d565b806305b344101461008257806306fdde03146100a35780630e8670e014610120575b600080fd5b61008a610247565b6040805163ffffffff9092168252519081900360200190f35b6100ab610253565b6040805160208082528351818301528351919283929083019185019080838360005b838110156100e55781810151838201526020016100cd565b50505050905090810190601f1680156101125780820380516001836020036101000a031916815260200191505b509250505060405180910390f35b6101286102e1565b60408051918252519081900360200190f35b6101426102e7565b60405180806020018563ffffffff168152602001846001600160a01b03168152602001838152602001828103825286818151815260200191508051906020019080838360005b838110156101a0578181015183820152602001610188565b50505050905090810190601f1680156101cd5780820380516001836020036101000a031916815260200191505b509550505050505060405180910390f35b6101e66103b1565b604080516001600160a01b039092168252519081900360200190f35b6102286004803603602081101561021857600080fd5b50356001600160a01b03166103c8565b005b6101e66004803603602081101561024057600080fd5b5035610538565b60015463ffffffff1681565b6000805460408051602060026001851615610100026000190190941693909304601f810184900484028201840190925281815292918301828280156102d95780601f106102ae576101008083540402835291602001916102d9565b820191906000526020600020905b8154815290600101906020018083116102bc57829003601f168201915b505050505081565b60035481565b6001805460035460008054604080516020600261010098851615989098026000190190931696909604601f8101839004830287018301909152808652606095929485948594859463ffffffff8416946401000000009094046001600160a01b031693869183018282801561039c5780601f106103715761010080835404028352916020019161039c565b820191906000526020600020905b81548152906001019060200180831161037f57829003601f168201915b50505050509350935093509350935090919293565b60015464010000000090046001600160a01b031681565b806001600160a01b031663a035b1fe6040518163ffffffff1660e01b815260040160206040518083038186803b15801561040157600080fd5b505afa158015610415573d6000803e3d6000fd5b505050506040513d602081101561042b57600080fd5b505160035410610482576040805162461bcd60e51b815260206004820152601e60248201527f546865726520616c7265616479206973206120686967686572206269642e0000604482015290519081900360640190fd5b600280546001810182556000919091527f405787fa12a823e0f2b7631cc41b3ba8828b3321ca811111fa75cd3aa3bb5ace0180546001600160a01b0319166001600160a01b0383169081179091556040805163501ad8ff60e11b8152905163a035b1fe91600480820192602092909190829003018186803b15801561050657600080fd5b505afa15801561051a573d6000803e3d6000fd5b505050506040513d602081101561053057600080fd5b505160035550565b6002818154811061054557fe5b6000918252602090912001546001600160a01b031690508156fea2646970667358221220219ead4b3e22c8a68e4e3bb8485a8a560deb130a35a6c278d41351deae00053f64736f6c63430007030033a2646970667358221220ad9ebae5137e1272b7cd15108411f7526c4e0a607ca8df5cdd4b57e8ed138c4b64736f6c63430007030033",
          "opcodes": "PUSH1 0x80 PUSH1 0x40 MSTORE CALLVALUE DUP1 ISZERO PUSH2 0x10 JUMPI PUSH1 0x0 DUP1 REVERT JUMPDEST POP PUSH2 0xE10 DUP1 PUSH2 0x20 PUSH1 0x0 CODECOPY PUSH1 0x0 RETURN INVALID PUSH1 0x80 PUSH1 0x40 MSTORE CALLVALUE DUP1 ISZERO PUSH2 0x10 JUMPI PUSH1 0x0 DUP1 REVERT JUMPDEST POP PUSH1 0x4 CALLDATASIZE LT PUSH2 0x57 JUMPI PUSH1 0x0 CALLDATALOAD PUSH1 0xE0 SHR DUP1 PUSH4 0xB81C78EC EQ PUSH2 0x5C JUMPI DUP1 PUSH4 0xBA7D9743 EQ PUSH2 0xB4 JUMPI DUP1 PUSH4 0xC7602316 EQ PUSH2 0xED JUMPI DUP1 PUSH4 0xC8B342AB EQ PUSH2 0x195 JUMPI DUP1 PUSH4 0xDD5B6273 EQ PUSH2 0x257 JUMPI JUMPDEST PUSH1 0x0 DUP1 REVERT JUMPDEST PUSH2 0x64 PUSH2 0x274 JUMP JUMPDEST PUSH1 0x40 DUP1 MLOAD PUSH1 0x20 DUP1 DUP3 MSTORE DUP4 MLOAD DUP2 DUP4 ADD MSTORE DUP4 MLOAD SWAP2 SWAP3 DUP4 SWAP3 SWAP1 DUP4 ADD SWAP2 DUP6 DUP2 ADD SWAP2 MUL DUP1 DUP4 DUP4 PUSH1 0x0 JUMPDEST DUP4 DUP2 LT ISZERO PUSH2 0xA0 JUMPI DUP2 DUP2 ADD MLOAD DUP4 DUP3 ADD MSTORE PUSH1 0x20 ADD PUSH2 0x88 JUMP JUMPDEST POP POP POP POP SWAP1 POP ADD SWAP3 POP POP POP PUSH1 0x40 MLOAD DUP1 SWAP2 SUB SWAP1 RETURN JUMPDEST PUSH2 0xD1 PUSH1 0x4 DUP1 CALLDATASIZE SUB PUSH1 0x20 DUP2 LT ISZERO PUSH2 0xCA JUMPI PUSH1 0x0 DUP1 REVERT JUMPDEST POP CALLDATALOAD PUSH2 0x2D6 JUMP JUMPDEST PUSH1 0x40 DUP1 MLOAD PUSH1 0x1 PUSH1 0x1 PUSH1 0xA0 SHL SUB SWAP1 SWAP3 AND DUP3 MSTORE MLOAD SWAP1 DUP2 SWAP1 SUB PUSH1 0x20 ADD SWAP1 RETURN JUMPDEST PUSH2 0x193 PUSH1 0x4 DUP1 CALLDATASIZE SUB PUSH1 0x20 DUP2 LT ISZERO PUSH2 0x103 JUMPI PUSH1 0x0 DUP1 REVERT JUMPDEST DUP2 ADD SWAP1 PUSH1 0x20 DUP2 ADD DUP2 CALLDATALOAD PUSH5 0x100000000 DUP2 GT ISZERO PUSH2 0x11E JUMPI PUSH1 0x0 DUP1 REVERT JUMPDEST DUP3 ADD DUP4 PUSH1 0x20 DUP3 ADD GT ISZERO PUSH2 0x130 JUMPI PUSH1 0x0 DUP1 REVERT JUMPDEST DUP1 CALLDATALOAD SWAP1 PUSH1 0x20 ADD SWAP2 DUP5 PUSH1 0x1 DUP4 MUL DUP5 ADD GT PUSH5 0x100000000 DUP4 GT OR ISZERO PUSH2 0x152 JUMPI PUSH1 0x0 DUP1 REVERT JUMPDEST SWAP2 SWAP1 DUP1 DUP1 PUSH1 0x1F ADD PUSH1 0x20 DUP1 SWAP2 DIV MUL PUSH1 0x20 ADD PUSH1 0x40 MLOAD SWAP1 DUP2 ADD PUSH1 0x40 MSTORE DUP1 SWAP4 SWAP3 SWAP2 SWAP1 DUP2 DUP2 MSTORE PUSH1 0x20 ADD DUP4 DUP4 DUP1 DUP3 DUP5 CALLDATACOPY PUSH1 0x0 SWAP3 ADD SWAP2 SWAP1 SWAP2 MSTORE POP SWAP3 SWAP6 POP PUSH2 0x2FD SWAP5 POP POP POP POP POP JUMP JUMPDEST STOP JUMPDEST PUSH2 0x1BB PUSH1 0x4 DUP1 CALLDATASIZE SUB PUSH1 0x20 DUP2 LT ISZERO PUSH2 0x1AB JUMPI PUSH1 0x0 DUP1 REVERT JUMPDEST POP CALLDATALOAD PUSH1 0x1 PUSH1 0x1 PUSH1 0xA0 SHL SUB AND PUSH2 0x309 JUMP JUMPDEST PUSH1 0x40 MLOAD DUP1 DUP1 PUSH1 0x20 ADD DUP6 PUSH4 0xFFFFFFFF AND DUP2 MSTORE PUSH1 0x20 ADD DUP5 PUSH1 0x1 PUSH1 0x1 PUSH1 0xA0 SHL SUB AND DUP2 MSTORE PUSH1 0x20 ADD DUP4 DUP2 MSTORE PUSH1 0x20 ADD DUP3 DUP2 SUB DUP3 MSTORE DUP7 DUP2 DUP2 MLOAD DUP2 MSTORE PUSH1 0x20 ADD SWAP2 POP DUP1 MLOAD SWAP1 PUSH1 0x20 ADD SWAP1 DUP1 DUP4 DUP4 PUSH1 0x0 JUMPDEST DUP4 DUP2 LT ISZERO PUSH2 0x219 JUMPI DUP2 DUP2 ADD MLOAD DUP4 DUP3 ADD MSTORE PUSH1 0x20 ADD PUSH2 0x201 JUMP JUMPDEST POP POP POP POP SWAP1 POP SWAP1 DUP2 ADD SWAP1 PUSH1 0x1F AND DUP1 ISZERO PUSH2 0x246 JUMPI DUP1 DUP3 SUB DUP1 MLOAD PUSH1 0x1 DUP4 PUSH1 0x20 SUB PUSH2 0x100 EXP SUB NOT AND DUP2 MSTORE PUSH1 0x20 ADD SWAP2 POP JUMPDEST POP SWAP6 POP POP POP POP POP POP PUSH1 0x40 MLOAD DUP1 SWAP2 SUB SWAP1 RETURN JUMPDEST PUSH2 0xD1 PUSH1 0x4 DUP1 CALLDATASIZE SUB PUSH1 0x20 DUP2 LT ISZERO PUSH2 0x26D JUMPI PUSH1 0x0 DUP1 REVERT JUMPDEST POP CALLDATALOAD PUSH2 0x4C0 JUMP JUMPDEST PUSH1 0x60 PUSH1 0x0 DUP1 SLOAD DUP1 PUSH1 0x20 MUL PUSH1 0x20 ADD PUSH1 0x40 MLOAD SWAP1 DUP2 ADD PUSH1 0x40 MSTORE DUP1 SWAP3 SWAP2 SWAP1 DUP2 DUP2 MSTORE PUSH1 0x20 ADD DUP3 DUP1 SLOAD DUP1 ISZERO PUSH2 0x2CC JUMPI PUSH1 0x20 MUL DUP3 ADD SWAP2 SWAP1 PUSH1 0x0 MSTORE PUSH1 0x20 PUSH1 0x0 KECCAK256 SWAP1 JUMPDEST DUP2 SLOAD PUSH1 0x1 PUSH1 0x1 PUSH1 0xA0 SHL SUB AND DUP2 MSTORE PUSH1 0x1 SWAP1 SWAP2 ADD SWAP1 PUSH1 0x20 ADD DUP1 DUP4 GT PUSH2 0x2AE JUMPI JUMPDEST POP POP POP POP POP SWAP1 POP SWAP1 JUMP JUMPDEST PUSH1 0x0 DUP2 DUP2 SLOAD DUP2 LT PUSH2 0x2E3 JUMPI INVALID JUMPDEST PUSH1 0x0 SWAP2 DUP3 MSTORE PUSH1 0x20 SWAP1 SWAP2 KECCAK256 ADD SLOAD PUSH1 0x1 PUSH1 0x1 PUSH1 0xA0 SHL SUB AND SWAP1 POP DUP2 JUMP JUMPDEST PUSH2 0x306 DUP2 PUSH2 0x4DB JUMP JUMPDEST POP JUMP JUMPDEST PUSH1 0x60 PUSH1 0x0 DUP1 DUP1 DUP1 JUMPDEST PUSH1 0x0 SLOAD DUP2 LT ISZERO PUSH2 0x4B7 JUMPI DUP6 PUSH1 0x1 PUSH1 0x1 PUSH1 0xA0 SHL SUB AND PUSH1 0x0 DUP3 DUP2 SLOAD DUP2 LT PUSH2 0x332 JUMPI INVALID JUMPDEST PUSH1 0x0 SWAP2 DUP3 MSTORE PUSH1 0x20 SWAP1 SWAP2 KECCAK256 ADD SLOAD PUSH1 0x1 PUSH1 0x1 PUSH1 0xA0 SHL SUB AND EQ ISZERO PUSH2 0x4AF JUMPI PUSH1 0x0 DUP2 DUP2 SLOAD DUP2 LT PUSH2 0x35A JUMPI INVALID JUMPDEST PUSH1 0x0 SWAP2 DUP3 MSTORE PUSH1 0x20 DUP3 KECCAK256 ADD SLOAD PUSH1 0x40 DUP1 MLOAD PUSH4 0x1B80AC75 PUSH1 0xE1 SHL DUP2 MSTORE SWAP1 MLOAD PUSH1 0x1 PUSH1 0x1 PUSH1 0xA0 SHL SUB SWAP1 SWAP3 AND SWAP3 PUSH4 0x370158EA SWAP3 PUSH1 0x4 DUP1 DUP5 ADD SWAP4 DUP3 SWAP1 SUB ADD DUP2 DUP7 DUP1 EXTCODESIZE ISZERO DUP1 ISZERO PUSH2 0x3A1 JUMPI PUSH1 0x0 DUP1 REVERT JUMPDEST POP GAS STATICCALL ISZERO DUP1 ISZERO PUSH2 0x3B5 JUMPI RETURNDATASIZE PUSH1 0x0 DUP1 RETURNDATACOPY RETURNDATASIZE PUSH1 0x0 REVERT JUMPDEST POP POP POP POP PUSH1 0x40 MLOAD RETURNDATASIZE PUSH1 0x0 DUP3 RETURNDATACOPY PUSH1 0x1F RETURNDATASIZE SWAP1 DUP2 ADD PUSH1 0x1F NOT AND DUP3 ADD PUSH1 0x40 MSTORE PUSH1 0x80 DUP2 LT ISZERO PUSH2 0x3DE JUMPI PUSH1 0x0 DUP1 REVERT JUMPDEST DUP2 ADD SWAP1 DUP1 DUP1 MLOAD PUSH1 0x40 MLOAD SWAP4 SWAP3 SWAP2 SWAP1 DUP5 PUSH5 0x100000000 DUP3 GT ISZERO PUSH2 0x3FE JUMPI PUSH1 0x0 DUP1 REVERT JUMPDEST SWAP1 DUP4 ADD SWAP1 PUSH1 0x20 DUP3 ADD DUP6 DUP2 GT ISZERO PUSH2 0x413 JUMPI PUSH1 0x0 DUP1 REVERT JUMPDEST DUP3 MLOAD PUSH5 0x100000000 DUP2 GT DUP3 DUP3 ADD DUP9 LT OR ISZERO PUSH2 0x42D JUMPI PUSH1 0x0 DUP1 REVERT JUMPDEST DUP3 MSTORE POP DUP2 MLOAD PUSH1 0x20 SWAP2 DUP3 ADD SWAP3 SWAP1 SWAP2 ADD SWAP1 DUP1 DUP4 DUP4 PUSH1 0x0 JUMPDEST DUP4 DUP2 LT ISZERO PUSH2 0x45A JUMPI DUP2 DUP2 ADD MLOAD DUP4 DUP3 ADD MSTORE PUSH1 0x20 ADD PUSH2 0x442 JUMP JUMPDEST POP POP POP POP SWAP1 POP SWAP1 DUP2 ADD SWAP1 PUSH1 0x1F AND DUP1 ISZERO PUSH2 0x487 JUMPI DUP1 DUP3 SUB DUP1 MLOAD PUSH1 0x1 DUP4 PUSH1 0x20 SUB PUSH2 0x100 EXP SUB NOT AND DUP2 MSTORE PUSH1 0x20 ADD SWAP2 POP JUMPDEST POP PUSH1 0x40 SWAP1 DUP2 MSTORE PUSH1 0x20 DUP3 ADD MLOAD SWAP1 DUP3 ADD MLOAD PUSH1 0x60 SWAP1 SWAP3 ADD MLOAD SWAP5 SWAP10 POP SWAP8 POP SWAP6 POP SWAP2 SWAP4 POP PUSH2 0x4B9 SWAP3 POP POP POP JUMP JUMPDEST PUSH1 0x1 ADD PUSH2 0x311 JUMP JUMPDEST POP JUMPDEST SWAP2 SWAP4 POP SWAP2 SWAP4 JUMP JUMPDEST PUSH1 0x1 PUSH1 0x20 MSTORE PUSH1 0x0 SWAP1 DUP2 MSTORE PUSH1 0x40 SWAP1 KECCAK256 SLOAD PUSH1 0x1 PUSH1 0x1 PUSH1 0xA0 SHL SUB AND DUP2 JUMP JUMPDEST PUSH1 0x0 DUP2 TIMESTAMP CALLER PUSH1 0x40 MLOAD PUSH2 0x4EC SWAP1 PUSH2 0x649 JUMP JUMPDEST DUP1 DUP1 PUSH1 0x20 ADD DUP5 PUSH4 0xFFFFFFFF AND DUP2 MSTORE PUSH1 0x20 ADD DUP4 PUSH1 0x1 PUSH1 0x1 PUSH1 0xA0 SHL SUB AND DUP2 MSTORE PUSH1 0x20 ADD DUP3 DUP2 SUB DUP3 MSTORE DUP6 DUP2 DUP2 MLOAD DUP2 MSTORE PUSH1 0x20 ADD SWAP2 POP DUP1 MLOAD SWAP1 PUSH1 0x20 ADD SWAP1 DUP1 DUP4 DUP4 PUSH1 0x0 JUMPDEST DUP4 DUP2 LT ISZERO PUSH2 0x541 JUMPI DUP2 DUP2 ADD MLOAD DUP4 DUP3 ADD MSTORE PUSH1 0x20 ADD PUSH2 0x529 JUMP JUMPDEST POP POP POP POP SWAP1 POP SWAP1 DUP2 ADD SWAP1 PUSH1 0x1F AND DUP1 ISZERO PUSH2 0x56E JUMPI DUP1 DUP3 SUB DUP1 MLOAD PUSH1 0x1 DUP4 PUSH1 0x20 SUB PUSH2 0x100 EXP SUB NOT AND DUP2 MSTORE PUSH1 0x20 ADD SWAP2 POP JUMPDEST POP SWAP5 POP POP POP POP POP PUSH1 0x40 MLOAD DUP1 SWAP2 SUB SWAP1 PUSH1 0x0 CREATE DUP1 ISZERO DUP1 ISZERO PUSH2 0x591 JUMPI RETURNDATASIZE PUSH1 0x0 DUP1 RETURNDATACOPY RETURNDATASIZE PUSH1 0x0 REVERT JUMPDEST POP PUSH1 0x0 DUP1 SLOAD PUSH1 0x1 DUP1 DUP3 ADD DUP4 SSTORE PUSH32 0x290DECD9548B62A8D60345A988386FC84BA6BC95484008F6362F93160EF3E563 SWAP1 SWAP2 ADD DUP1 SLOAD PUSH1 0x1 PUSH1 0x1 PUSH1 0xA0 SHL SUB NOT SWAP1 DUP2 AND PUSH1 0x1 PUSH1 0x1 PUSH1 0xA0 SHL SUB DUP7 AND SWAP1 DUP2 OR SWAP1 SWAP3 SSTORE DUP4 SLOAD PUSH1 0x0 NOT ADD DUP1 DUP6 MSTORE PUSH1 0x20 DUP5 DUP2 MSTORE PUSH1 0x40 DUP1 DUP8 KECCAK256 DUP1 SLOAD CALLER SWAP6 AND DUP6 OR SWAP1 SSTORE SWAP3 DUP7 MSTORE PUSH1 0x2 DUP2 MSTORE SWAP5 DUP3 SWAP1 KECCAK256 DUP1 SLOAD SWAP1 SWAP5 ADD SWAP1 SWAP4 SSTORE DUP1 MLOAD SWAP2 DUP3 MSTORE MLOAD SWAP4 SWAP5 POP SWAP1 SWAP3 PUSH32 0xFD0D87C99F5A790A851FD21B54AF52A22BF2CE586122EE5594770802F22843AD SWAP3 SWAP2 DUP2 SWAP1 SUB SWAP1 SWAP2 ADD SWAP1 LOG1 POP POP POP JUMP JUMPDEST PUSH2 0x784 DUP1 PUSH2 0x657 DUP4 CODECOPY ADD SWAP1 JUMP INVALID PUSH1 0x80 PUSH1 0x40 MSTORE CALLVALUE DUP1 ISZERO PUSH2 0x10 JUMPI PUSH1 0x0 DUP1 REVERT JUMPDEST POP PUSH1 0x40 MLOAD PUSH2 0x784 CODESIZE SUB DUP1 PUSH2 0x784 DUP4 CODECOPY DUP2 DUP2 ADD PUSH1 0x40 MSTORE PUSH1 0x60 DUP2 LT ISZERO PUSH2 0x33 JUMPI PUSH1 0x0 DUP1 REVERT JUMPDEST DUP2 ADD SWAP1 DUP1 DUP1 MLOAD PUSH1 0x40 MLOAD SWAP4 SWAP3 SWAP2 SWAP1 DUP5 PUSH5 0x100000000 DUP3 GT ISZERO PUSH2 0x53 JUMPI PUSH1 0x0 DUP1 REVERT JUMPDEST SWAP1 DUP4 ADD SWAP1 PUSH1 0x20 DUP3 ADD DUP6 DUP2 GT ISZERO PUSH2 0x68 JUMPI PUSH1 0x0 DUP1 REVERT JUMPDEST DUP3 MLOAD PUSH5 0x100000000 DUP2 GT DUP3 DUP3 ADD DUP9 LT OR ISZERO PUSH2 0x82 JUMPI PUSH1 0x0 DUP1 REVERT JUMPDEST DUP3 MSTORE POP DUP2 MLOAD PUSH1 0x20 SWAP2 DUP3 ADD SWAP3 SWAP1 SWAP2 ADD SWAP1 DUP1 DUP4 DUP4 PUSH1 0x0 JUMPDEST DUP4 DUP2 LT ISZERO PUSH2 0xAF JUMPI DUP2 DUP2 ADD MLOAD DUP4 DUP3 ADD MSTORE PUSH1 0x20 ADD PUSH2 0x97 JUMP JUMPDEST POP POP POP POP SWAP1 POP SWAP1 DUP2 ADD SWAP1 PUSH1 0x1F AND DUP1 ISZERO PUSH2 0xDC JUMPI DUP1 DUP3 SUB DUP1 MLOAD PUSH1 0x1 DUP4 PUSH1 0x20 SUB PUSH2 0x100 EXP SUB NOT AND DUP2 MSTORE PUSH1 0x20 ADD SWAP2 POP JUMPDEST POP PUSH1 0x40 SWAP1 DUP2 MSTORE PUSH1 0x20 DUP3 DUP2 ADD MLOAD SWAP3 SWAP1 SWAP2 ADD MLOAD DUP6 MLOAD SWAP3 SWAP5 POP SWAP3 POP PUSH2 0x103 SWAP2 PUSH1 0x0 SWAP2 DUP7 ADD SWAP1 PUSH2 0x14D JUMP JUMPDEST POP PUSH1 0x1 DUP1 SLOAD PUSH1 0x1 PUSH1 0x1 PUSH1 0xA0 SHL SUB SWAP1 SWAP3 AND PUSH5 0x100000000 MUL PUSH1 0x1 PUSH1 0x20 SHL PUSH1 0x1 PUSH1 0xC0 SHL SUB NOT PUSH4 0xFFFFFFFF SWAP1 SWAP5 AND PUSH4 0xFFFFFFFF NOT SWAP1 SWAP4 AND SWAP3 SWAP1 SWAP3 OR SWAP3 SWAP1 SWAP3 AND OR SWAP1 SSTORE POP PUSH1 0x0 PUSH1 0x3 SSTORE PUSH2 0x1E0 JUMP JUMPDEST DUP3 DUP1 SLOAD PUSH1 0x1 DUP2 PUSH1 0x1 AND ISZERO PUSH2 0x100 MUL SUB AND PUSH1 0x2 SWAP1 DIV SWAP1 PUSH1 0x0 MSTORE PUSH1 0x20 PUSH1 0x0 KECCAK256 SWAP1 PUSH1 0x1F ADD PUSH1 0x20 SWAP1 DIV DUP2 ADD SWAP3 DUP3 PUSH1 0x1F LT PUSH2 0x18E JUMPI DUP1 MLOAD PUSH1 0xFF NOT AND DUP4 DUP1 ADD OR DUP6 SSTORE PUSH2 0x1BB JUMP JUMPDEST DUP3 DUP1 ADD PUSH1 0x1 ADD DUP6 SSTORE DUP3 ISZERO PUSH2 0x1BB JUMPI SWAP2 DUP3 ADD JUMPDEST DUP3 DUP2 GT ISZERO PUSH2 0x1BB JUMPI DUP3 MLOAD DUP3 SSTORE SWAP2 PUSH1 0x20 ADD SWAP2 SWAP1 PUSH1 0x1 ADD SWAP1 PUSH2 0x1A0 JUMP JUMPDEST POP PUSH2 0x1C7 SWAP3 SWAP2 POP PUSH2 0x1CB JUMP JUMPDEST POP SWAP1 JUMP JUMPDEST JUMPDEST DUP1 DUP3 GT ISZERO PUSH2 0x1C7 JUMPI PUSH1 0x0 DUP2 SSTORE PUSH1 0x1 ADD PUSH2 0x1CC JUMP JUMPDEST PUSH2 0x595 DUP1 PUSH2 0x1EF PUSH1 0x0 CODECOPY PUSH1 0x0 RETURN INVALID PUSH1 0x80 PUSH1 0x40 MSTORE CALLVALUE DUP1 ISZERO PUSH2 0x10 JUMPI PUSH1 0x0 DUP1 REVERT JUMPDEST POP PUSH1 0x4 CALLDATASIZE LT PUSH2 0x7D JUMPI PUSH1 0x0 CALLDATALOAD PUSH1 0xE0 SHR DUP1 PUSH4 0x370158EA GT PUSH2 0x5B JUMPI DUP1 PUSH4 0x370158EA EQ PUSH2 0x13A JUMPI DUP1 PUSH4 0x8DA5CB5B EQ PUSH2 0x1DE JUMPI DUP1 PUSH4 0xE50FF99C EQ PUSH2 0x202 JUMPI DUP1 PUSH4 0xF721FA5A EQ PUSH2 0x22A JUMPI PUSH2 0x7D JUMP JUMPDEST DUP1 PUSH4 0x5B34410 EQ PUSH2 0x82 JUMPI DUP1 PUSH4 0x6FDDE03 EQ PUSH2 0xA3 JUMPI DUP1 PUSH4 0xE8670E0 EQ PUSH2 0x120 JUMPI JUMPDEST PUSH1 0x0 DUP1 REVERT JUMPDEST PUSH2 0x8A PUSH2 0x247 JUMP JUMPDEST PUSH1 0x40 DUP1 MLOAD PUSH4 0xFFFFFFFF SWAP1 SWAP3 AND DUP3 MSTORE MLOAD SWAP1 DUP2 SWAP1 SUB PUSH1 0x20 ADD SWAP1 RETURN JUMPDEST PUSH2 0xAB PUSH2 0x253 JUMP JUMPDEST PUSH1 0x40 DUP1 MLOAD PUSH1 0x20 DUP1 DUP3 MSTORE DUP4 MLOAD DUP2 DUP4 ADD MSTORE DUP4 MLOAD SWAP2 SWAP3 DUP4 SWAP3 SWAP1 DUP4 ADD SWAP2 DUP6 ADD SWAP1 DUP1 DUP4 DUP4 PUSH1 0x0 JUMPDEST DUP4 DUP2 LT ISZERO PUSH2 0xE5 JUMPI DUP2 DUP2 ADD MLOAD DUP4 DUP3 ADD MSTORE PUSH1 0x20 ADD PUSH2 0xCD JUMP JUMPDEST POP POP POP POP SWAP1 POP SWAP1 DUP2 ADD SWAP1 PUSH1 0x1F AND DUP1 ISZERO PUSH2 0x112 JUMPI DUP1 DUP3 SUB DUP1 MLOAD PUSH1 0x1 DUP4 PUSH1 0x20 SUB PUSH2 0x100 EXP SUB NOT AND DUP2 MSTORE PUSH1 0x20 ADD SWAP2 POP JUMPDEST POP SWAP3 POP POP POP PUSH1 0x40 MLOAD DUP1 SWAP2 SUB SWAP1 RETURN JUMPDEST PUSH2 0x128 PUSH2 0x2E1 JUMP JUMPDEST PUSH1 0x40 DUP1 MLOAD SWAP2 DUP3 MSTORE MLOAD SWAP1 DUP2 SWAP1 SUB PUSH1 0x20 ADD SWAP1 RETURN JUMPDEST PUSH2 0x142 PUSH2 0x2E7 JUMP JUMPDEST PUSH1 0x40 MLOAD DUP1 DUP1 PUSH1 0x20 ADD DUP6 PUSH4 0xFFFFFFFF AND DUP2 MSTORE PUSH1 0x20 ADD DUP5 PUSH1 0x1 PUSH1 0x1 PUSH1 0xA0 SHL SUB AND DUP2 MSTORE PUSH1 0x20 ADD DUP4 DUP2 MSTORE PUSH1 0x20 ADD DUP3 DUP2 SUB DUP3 MSTORE DUP7 DUP2 DUP2 MLOAD DUP2 MSTORE PUSH1 0x20 ADD SWAP2 POP DUP1 MLOAD SWAP1 PUSH1 0x20 ADD SWAP1 DUP1 DUP4 DUP4 PUSH1 0x0 JUMPDEST DUP4 DUP2 LT ISZERO PUSH2 0x1A0 JUMPI DUP2 DUP2 ADD MLOAD DUP4 DUP3 ADD MSTORE PUSH1 0x20 ADD PUSH2 0x188 JUMP JUMPDEST POP POP POP POP SWAP1 POP SWAP1 DUP2 ADD SWAP1 PUSH1 0x1F AND DUP1 ISZERO PUSH2 0x1CD JUMPI DUP1 DUP3 SUB DUP1 MLOAD PUSH1 0x1 DUP4 PUSH1 0x20 SUB PUSH2 0x100 EXP SUB NOT AND DUP2 MSTORE PUSH1 0x20 ADD SWAP2 POP JUMPDEST POP SWAP6 POP POP POP POP POP POP PUSH1 0x40 MLOAD DUP1 SWAP2 SUB SWAP1 RETURN JUMPDEST PUSH2 0x1E6 PUSH2 0x3B1 JUMP JUMPDEST PUSH1 0x40 DUP1 MLOAD PUSH1 0x1 PUSH1 0x1 PUSH1 0xA0 SHL SUB SWAP1 SWAP3 AND DUP3 MSTORE MLOAD SWAP1 DUP2 SWAP1 SUB PUSH1 0x20 ADD SWAP1 RETURN JUMPDEST PUSH2 0x228 PUSH1 0x4 DUP1 CALLDATASIZE SUB PUSH1 0x20 DUP2 LT ISZERO PUSH2 0x218 JUMPI PUSH1 0x0 DUP1 REVERT JUMPDEST POP CALLDATALOAD PUSH1 0x1 PUSH1 0x1 PUSH1 0xA0 SHL SUB AND PUSH2 0x3C8 JUMP JUMPDEST STOP JUMPDEST PUSH2 0x1E6 PUSH1 0x4 DUP1 CALLDATASIZE SUB PUSH1 0x20 DUP2 LT ISZERO PUSH2 0x240 JUMPI PUSH1 0x0 DUP1 REVERT JUMPDEST POP CALLDATALOAD PUSH2 0x538 JUMP JUMPDEST PUSH1 0x1 SLOAD PUSH4 0xFFFFFFFF AND DUP2 JUMP JUMPDEST PUSH1 0x0 DUP1 SLOAD PUSH1 0x40 DUP1 MLOAD PUSH1 0x20 PUSH1 0x2 PUSH1 0x1 DUP6 AND ISZERO PUSH2 0x100 MUL PUSH1 0x0 NOT ADD SWAP1 SWAP5 AND SWAP4 SWAP1 SWAP4 DIV PUSH1 0x1F DUP2 ADD DUP5 SWAP1 DIV DUP5 MUL DUP3 ADD DUP5 ADD SWAP1 SWAP3 MSTORE DUP2 DUP2 MSTORE SWAP3 SWAP2 DUP4 ADD DUP3 DUP3 DUP1 ISZERO PUSH2 0x2D9 JUMPI DUP1 PUSH1 0x1F LT PUSH2 0x2AE JUMPI PUSH2 0x100 DUP1 DUP4 SLOAD DIV MUL DUP4 MSTORE SWAP2 PUSH1 0x20 ADD SWAP2 PUSH2 0x2D9 JUMP JUMPDEST DUP3 ADD SWAP2 SWAP1 PUSH1 0x0 MSTORE PUSH1 0x20 PUSH1 0x0 KECCAK256 SWAP1 JUMPDEST DUP2 SLOAD DUP2 MSTORE SWAP1 PUSH1 0x1 ADD SWAP1 PUSH1 0x20 ADD DUP1 DUP4 GT PUSH2 0x2BC JUMPI DUP3 SWAP1 SUB PUSH1 0x1F AND DUP3 ADD SWAP2 JUMPDEST POP POP POP POP POP DUP2 JUMP JUMPDEST PUSH1 0x3 SLOAD DUP2 JUMP JUMPDEST PUSH1 0x1 DUP1 SLOAD PUSH1 0x3 SLOAD PUSH1 0x0 DUP1 SLOAD PUSH1 0x40 DUP1 MLOAD PUSH1 0x20 PUSH1 0x2 PUSH2 0x100 SWAP9 DUP6 AND ISZERO SWAP9 SWAP1 SWAP9 MUL PUSH1 0x0 NOT ADD SWAP1 SWAP4 AND SWAP7 SWAP1 SWAP7 DIV PUSH1 0x1F DUP2 ADD DUP4 SWAP1 DIV DUP4 MUL DUP8 ADD DUP4 ADD SWAP1 SWAP2 MSTORE DUP1 DUP7 MSTORE PUSH1 0x60 SWAP6 SWAP3 SWAP5 DUP6 SWAP5 DUP6 SWAP5 DUP6 SWAP5 PUSH4 0xFFFFFFFF DUP5 AND SWAP5 PUSH5 0x100000000 SWAP1 SWAP5 DIV PUSH1 0x1 PUSH1 0x1 PUSH1 0xA0 SHL SUB AND SWAP4 DUP7 SWAP2 DUP4 ADD DUP3 DUP3 DUP1 ISZERO PUSH2 0x39C JUMPI DUP1 PUSH1 0x1F LT PUSH2 0x371 JUMPI PUSH2 0x100 DUP1 DUP4 SLOAD DIV MUL DUP4 MSTORE SWAP2 PUSH1 0x20 ADD SWAP2 PUSH2 0x39C JUMP JUMPDEST DUP3 ADD SWAP2 SWAP1 PUSH1 0x0 MSTORE PUSH1 0x20 PUSH1 0x0 KECCAK256 SWAP1 JUMPDEST DUP2 SLOAD DUP2 MSTORE SWAP1 PUSH1 0x1 ADD SWAP1 PUSH1 0x20 ADD DUP1 DUP4 GT PUSH2 0x37F JUMPI DUP3 SWAP1 SUB PUSH1 0x1F AND DUP3 ADD SWAP2 JUMPDEST POP POP POP POP POP SWAP4 POP SWAP4 POP SWAP4 POP SWAP4 POP SWAP4 POP SWAP1 SWAP2 SWAP3 SWAP4 JUMP JUMPDEST PUSH1 0x1 SLOAD PUSH5 0x100000000 SWAP1 DIV PUSH1 0x1 PUSH1 0x1 PUSH1 0xA0 SHL SUB AND DUP2 JUMP JUMPDEST DUP1 PUSH1 0x1 PUSH1 0x1 PUSH1 0xA0 SHL SUB AND PUSH4 0xA035B1FE PUSH1 0x40 MLOAD DUP2 PUSH4 0xFFFFFFFF AND PUSH1 0xE0 SHL DUP2 MSTORE PUSH1 0x4 ADD PUSH1 0x20 PUSH1 0x40 MLOAD DUP1 DUP4 SUB DUP2 DUP7 DUP1 EXTCODESIZE ISZERO DUP1 ISZERO PUSH2 0x401 JUMPI PUSH1 0x0 DUP1 REVERT JUMPDEST POP GAS STATICCALL ISZERO DUP1 ISZERO PUSH2 0x415 JUMPI RETURNDATASIZE PUSH1 0x0 DUP1 RETURNDATACOPY RETURNDATASIZE PUSH1 0x0 REVERT JUMPDEST POP POP POP POP PUSH1 0x40 MLOAD RETURNDATASIZE PUSH1 0x20 DUP2 LT ISZERO PUSH2 0x42B JUMPI PUSH1 0x0 DUP1 REVERT JUMPDEST POP MLOAD PUSH1 0x3 SLOAD LT PUSH2 0x482 JUMPI PUSH1 0x40 DUP1 MLOAD PUSH3 0x461BCD PUSH1 0xE5 SHL DUP2 MSTORE PUSH1 0x20 PUSH1 0x4 DUP3 ADD MSTORE PUSH1 0x1E PUSH1 0x24 DUP3 ADD MSTORE PUSH32 0x546865726520616C7265616479206973206120686967686572206269642E0000 PUSH1 0x44 DUP3 ADD MSTORE SWAP1 MLOAD SWAP1 DUP2 SWAP1 SUB PUSH1 0x64 ADD SWAP1 REVERT JUMPDEST PUSH1 0x2 DUP1 SLOAD PUSH1 0x1 DUP2 ADD DUP3 SSTORE PUSH1 0x0 SWAP2 SWAP1 SWAP2 MSTORE PUSH32 0x405787FA12A823E0F2B7631CC41B3BA8828B3321CA811111FA75CD3AA3BB5ACE ADD DUP1 SLOAD PUSH1 0x1 PUSH1 0x1 PUSH1 0xA0 SHL SUB NOT AND PUSH1 0x1 PUSH1 0x1 PUSH1 0xA0 SHL SUB DUP4 AND SWAP1 DUP2 OR SWAP1 SWAP2 SSTORE PUSH1 0x40 DUP1 MLOAD PUSH4 0x501AD8FF PUSH1 0xE1 SHL DUP2 MSTORE SWAP1 MLOAD PUSH4 0xA035B1FE SWAP2 PUSH1 0x4 DUP1 DUP3 ADD SWAP3 PUSH1 0x20 SWAP3 SWAP1 SWAP2 SWAP1 DUP3 SWAP1 SUB ADD DUP2 DUP7 DUP1 EXTCODESIZE ISZERO DUP1 ISZERO PUSH2 0x506 JUMPI PUSH1 0x0 DUP1 REVERT JUMPDEST POP GAS STATICCALL ISZERO DUP1 ISZERO PUSH2 0x51A JUMPI RETURNDATASIZE PUSH1 0x0 DUP1 RETURNDATACOPY RETURNDATASIZE PUSH1 0x0 REVERT JUMPDEST POP POP POP POP PUSH1 0x40 MLOAD RETURNDATASIZE PUSH1 0x20 DUP2 LT ISZERO PUSH2 0x530 JUMPI PUSH1 0x0 DUP1 REVERT JUMPDEST POP MLOAD PUSH1 0x3 SSTORE POP JUMP JUMPDEST PUSH1 0x2 DUP2 DUP2 SLOAD DUP2 LT PUSH2 0x545 JUMPI INVALID JUMPDEST PUSH1 0x0 SWAP2 DUP3 MSTORE PUSH1 0x20 SWAP1 SWAP2 KECCAK256 ADD SLOAD PUSH1 0x1 PUSH1 0x1 PUSH1 0xA0 SHL SUB AND SWAP1 POP DUP2 JUMP INVALID LOG2 PUSH5 0x6970667358 0x22 SLT KECCAK256 0x21 SWAP15 0xAD 0x4B RETURNDATACOPY 0x22 0xC8 0xA6 DUP15 0x4E EXTCODESIZE 0xB8 0x48 GAS DUP11 JUMP 0xD 0xEB SGT EXP CALLDATALOAD 0xA6 0xC2 PUSH25 0xD41351DEAE00053F64736F6C63430007030033A26469706673 PC 0x22 SLT KECCAK256 0xAD SWAP15 0xBA 0xE5 SGT PUSH31 0x1272B7CD15108411F7526C4E0A607CA8DF5CDD4B57E8ED138C4B64736F6C63 NUMBER STOP SMOD SUB STOP CALLER "
        },
        "methodIdentifiers": {
          "bidToOwner(uint256)": "dd5b6273",
          "bidsAdresses(uint256)": "ba7d9743",
          "deploy(string)": "c7602316",
          "getBid(address)": "c8b342ab",
          "getBids()": "b81c78ec"
        }
      }
    }
  }
}