{
  "contracts/OverbidBaseFactory.sol": {
    "OverbidBaseFactory": {
      "abi": [
        {
          "inputs": [
            {
              "internalType": "uint256",
              "name": "_price",
              "type": "uint256"
            },
            {
              "internalType": "contract BidBase",
              "name": "_bid",
              "type": "address"
            }
          ],
          "name": "deploy",
          "outputs": [],
          "stateMutability": "nonpayable",
          "type": "function"
        }
      ],
      "evm": {
        "bytecode": {
          "linkReferences": {},
          "object": "608060405234801561001057600080fd5b506102c4806100206000396000f3fe608060405234801561001057600080fd5b506004361061002b5760003560e01c8063df02995d14610030575b600080fd5b61005c6004803603604081101561004657600080fd5b50803590602001356001600160a01b031661005e565b005b610068828261006c565b5050565b600082116100c1576040805162461bcd60e51b815260206004820152601c60248201527f5072696365206d7573742062652067726561746572207468616e203000000000604482015290519081900360640190fd5b60008282336040516100d29061017c565b9283526001600160a01b039182166020840152166040808301919091525190819003606001906000f08015801561010d573d6000803e3d6000fd5b509050816001600160a01b031663e50ff99c826040518263ffffffff1660e01b815260040180826001600160a01b03168152602001915050600060405180830381600087803b15801561015f57600080fd5b505af1158015610173573d6000803e3d6000fd5b50505050505050565b6101058061018a8339019056fe608060405234801561001057600080fd5b506040516101053803806101058339818101604052606081101561003357600080fd5b5080516020820151604090920151600091909155600180546001600160a01b039384166001600160a01b031991821617909155600280549390921692169190911790556081806100846000396000f3fe6080604052348015600f57600080fd5b506004361060285760003560e01c8063a035b1fe14602d575b600080fd5b60336045565b60408051918252519081900360200190f35b6000548156fea2646970667358221220afd0d1167a39523eac31e9aec8f09fdd129977c3f59ad0650f946af8988cfcaa64736f6c63430007030033a264697066735822122038cd66eb904c2895a9316d9970e024b17e293a54e3abe412f2fbc55dbf3767c464736f6c63430007030033",
          "opcodes": "PUSH1 0x80 PUSH1 0x40 MSTORE CALLVALUE DUP1 ISZERO PUSH2 0x10 JUMPI PUSH1 0x0 DUP1 REVERT JUMPDEST POP PUSH2 0x2C4 DUP1 PUSH2 0x20 PUSH1 0x0 CODECOPY PUSH1 0x0 RETURN INVALID PUSH1 0x80 PUSH1 0x40 MSTORE CALLVALUE DUP1 ISZERO PUSH2 0x10 JUMPI PUSH1 0x0 DUP1 REVERT JUMPDEST POP PUSH1 0x4 CALLDATASIZE LT PUSH2 0x2B JUMPI PUSH1 0x0 CALLDATALOAD PUSH1 0xE0 SHR DUP1 PUSH4 0xDF02995D EQ PUSH2 0x30 JUMPI JUMPDEST PUSH1 0x0 DUP1 REVERT JUMPDEST PUSH2 0x5C PUSH1 0x4 DUP1 CALLDATASIZE SUB PUSH1 0x40 DUP2 LT ISZERO PUSH2 0x46 JUMPI PUSH1 0x0 DUP1 REVERT JUMPDEST POP DUP1 CALLDATALOAD SWAP1 PUSH1 0x20 ADD CALLDATALOAD PUSH1 0x1 PUSH1 0x1 PUSH1 0xA0 SHL SUB AND PUSH2 0x5E JUMP JUMPDEST STOP JUMPDEST PUSH2 0x68 DUP3 DUP3 PUSH2 0x6C JUMP JUMPDEST POP POP JUMP JUMPDEST PUSH1 0x0 DUP3 GT PUSH2 0xC1 JUMPI PUSH1 0x40 DUP1 MLOAD PUSH3 0x461BCD PUSH1 0xE5 SHL DUP2 MSTORE PUSH1 0x20 PUSH1 0x4 DUP3 ADD MSTORE PUSH1 0x1C PUSH1 0x24 DUP3 ADD MSTORE PUSH32 0x5072696365206D7573742062652067726561746572207468616E203000000000 PUSH1 0x44 DUP3 ADD MSTORE SWAP1 MLOAD SWAP1 DUP2 SWAP1 SUB PUSH1 0x64 ADD SWAP1 REVERT JUMPDEST PUSH1 0x0 DUP3 DUP3 CALLER PUSH1 0x40 MLOAD PUSH2 0xD2 SWAP1 PUSH2 0x17C JUMP JUMPDEST SWAP3 DUP4 MSTORE PUSH1 0x1 PUSH1 0x1 PUSH1 0xA0 SHL SUB SWAP2 DUP3 AND PUSH1 0x20 DUP5 ADD MSTORE AND PUSH1 0x40 DUP1 DUP4 ADD SWAP2 SWAP1 SWAP2 MSTORE MLOAD SWAP1 DUP2 SWAP1 SUB PUSH1 0x60 ADD SWAP1 PUSH1 0x0 CREATE DUP1 ISZERO DUP1 ISZERO PUSH2 0x10D JUMPI RETURNDATASIZE PUSH1 0x0 DUP1 RETURNDATACOPY RETURNDATASIZE PUSH1 0x0 REVERT JUMPDEST POP SWAP1 POP DUP2 PUSH1 0x1 PUSH1 0x1 PUSH1 0xA0 SHL SUB AND PUSH4 0xE50FF99C DUP3 PUSH1 0x40 MLOAD DUP3 PUSH4 0xFFFFFFFF AND PUSH1 0xE0 SHL DUP2 MSTORE PUSH1 0x4 ADD DUP1 DUP3 PUSH1 0x1 PUSH1 0x1 PUSH1 0xA0 SHL SUB AND DUP2 MSTORE PUSH1 0x20 ADD SWAP2 POP POP PUSH1 0x0 PUSH1 0x40 MLOAD DUP1 DUP4 SUB DUP2 PUSH1 0x0 DUP8 DUP1 EXTCODESIZE ISZERO DUP1 ISZERO PUSH2 0x15F JUMPI PUSH1 0x0 DUP1 REVERT JUMPDEST POP GAS CALL ISZERO DUP1 ISZERO PUSH2 0x173 JUMPI RETURNDATASIZE PUSH1 0x0 DUP1 RETURNDATACOPY RETURNDATASIZE PUSH1 0x0 REVERT JUMPDEST POP POP POP POP POP POP POP JUMP JUMPDEST PUSH2 0x105 DUP1 PUSH2 0x18A DUP4 CODECOPY ADD SWAP1 JUMP INVALID PUSH1 0x80 PUSH1 0x40 MSTORE CALLVALUE DUP1 ISZERO PUSH2 0x10 JUMPI PUSH1 0x0 DUP1 REVERT JUMPDEST POP PUSH1 0x40 MLOAD PUSH2 0x105 CODESIZE SUB DUP1 PUSH2 0x105 DUP4 CODECOPY DUP2 DUP2 ADD PUSH1 0x40 MSTORE PUSH1 0x60 DUP2 LT ISZERO PUSH2 0x33 JUMPI PUSH1 0x0 DUP1 REVERT JUMPDEST POP DUP1 MLOAD PUSH1 0x20 DUP3 ADD MLOAD PUSH1 0x40 SWAP1 SWAP3 ADD MLOAD PUSH1 0x0 SWAP2 SWAP1 SWAP2 SSTORE PUSH1 0x1 DUP1 SLOAD PUSH1 0x1 PUSH1 0x1 PUSH1 0xA0 SHL SUB SWAP4 DUP5 AND PUSH1 0x1 PUSH1 0x1 PUSH1 0xA0 SHL SUB NOT SWAP2 DUP3 AND OR SWAP1 SWAP2 SSTORE PUSH1 0x2 DUP1 SLOAD SWAP4 SWAP1 SWAP3 AND SWAP3 AND SWAP2 SWAP1 SWAP2 OR SWAP1 SSTORE PUSH1 0x81 DUP1 PUSH2 0x84 PUSH1 0x0 CODECOPY PUSH1 0x0 RETURN INVALID PUSH1 0x80 PUSH1 0x40 MSTORE CALLVALUE DUP1 ISZERO PUSH1 0xF JUMPI PUSH1 0x0 DUP1 REVERT JUMPDEST POP PUSH1 0x4 CALLDATASIZE LT PUSH1 0x28 JUMPI PUSH1 0x0 CALLDATALOAD PUSH1 0xE0 SHR DUP1 PUSH4 0xA035B1FE EQ PUSH1 0x2D JUMPI JUMPDEST PUSH1 0x0 DUP1 REVERT JUMPDEST PUSH1 0x33 PUSH1 0x45 JUMP JUMPDEST PUSH1 0x40 DUP1 MLOAD SWAP2 DUP3 MSTORE MLOAD SWAP1 DUP2 SWAP1 SUB PUSH1 0x20 ADD SWAP1 RETURN JUMPDEST PUSH1 0x0 SLOAD DUP2 JUMP INVALID LOG2 PUSH5 0x6970667358 0x22 SLT KECCAK256 0xAF 0xD0 0xD1 AND PUSH27 0x39523EAC31E9AEC8F09FDD129977C3F59AD0650F946AF8988CFCAA PUSH5 0x736F6C6343 STOP SMOD SUB STOP CALLER LOG2 PUSH5 0x6970667358 0x22 SLT KECCAK256 CODESIZE 0xCD PUSH7 0xEB904C2895A931 PUSH14 0x9970E024B17E293A54E3ABE412F2 0xFB 0xC5 0x5D 0xBF CALLDATACOPY PUSH8 0xC464736F6C634300 SMOD SUB STOP CALLER "
        },
        "methodIdentifiers": {
          "deploy(uint256,address)": "df02995d"
        }
      }
    }
  }
}