{
  "_format": "hh-sol-artifact-1",
  "contractName": "BidFactory",
  "sourceName": "contracts/BidFactory.sol",
  "abi": [
    {
      "anonymous": false,
      "inputs": [
        {
          "indexed": false,
          "internalType": "contract BidBase",
          "name": "bid",
          "type": "address"
        }
      ],
      "name": "BidCreated",
      "type": "event"
    },
    {
      "inputs": [
        {
          "internalType": "uint256",
          "name": "",
          "type": "uint256"
        }
      ],
      "name": "bidToOwner",
      "outputs": [
        {
          "internalType": "address",
          "name": "",
          "type": "address"
        }
      ],
      "stateMutability": "view",
      "type": "function"
    },
    {
      "inputs": [
        {
          "internalType": "uint256",
          "name": "",
          "type": "uint256"
        }
      ],
      "name": "bidsAdresses",
      "outputs": [
        {
          "internalType": "contract BidBase",
          "name": "",
          "type": "address"
        }
      ],
      "stateMutability": "view",
      "type": "function"
    },
    {
      "inputs": [
        {
          "internalType": "string",
          "name": "_name",
          "type": "string"
        }
      ],
      "name": "deploy",
      "outputs": [],
      "stateMutability": "nonpayable",
      "type": "function"
    },
    {
      "inputs": [
        {
          "internalType": "address",
          "name": "bidAddress",
          "type": "address"
        }
      ],
      "name": "getBid",
      "outputs": [
        {
          "internalType": "string",
          "name": "name",
          "type": "string"
        },
        {
          "internalType": "uint32",
          "name": "creationDate",
          "type": "uint32"
        },
        {
          "internalType": "address",
          "name": "owner",
          "type": "address"
        },
        {
          "internalType": "uint256",
          "name": "highestPrice",
          "type": "uint256"
        }
      ],
      "stateMutability": "view",
      "type": "function"
    },
    {
      "inputs": [],
      "name": "getBids",
      "outputs": [
        {
          "internalType": "contract BidBase[]",
          "name": "",
          "type": "address[]"
        }
      ],
      "stateMutability": "view",
      "type": "function"
    }
  ],
  "bytecode": "0x608060405234801561001057600080fd5b50610e10806100206000396000f3fe608060405234801561001057600080fd5b50600436106100575760003560e01c8063b81c78ec1461005c578063ba7d9743146100b4578063c7602316146100ed578063c8b342ab14610195578063dd5b627314610257575b600080fd5b610064610274565b60408051602080825283518183015283519192839290830191858101910280838360005b838110156100a0578181015183820152602001610088565b505050509050019250505060405180910390f35b6100d1600480360360208110156100ca57600080fd5b50356102d6565b604080516001600160a01b039092168252519081900360200190f35b6101936004803603602081101561010357600080fd5b81019060208101813564010000000081111561011e57600080fd5b82018360208201111561013057600080fd5b8035906020019184600183028401116401000000008311171561015257600080fd5b91908080601f0160208091040260200160405190810160405280939291908181526020018383808284376000920191909152509295506102fd945050505050565b005b6101bb600480360360208110156101ab57600080fd5b50356001600160a01b0316610309565b60405180806020018563ffffffff168152602001846001600160a01b03168152602001838152602001828103825286818151815260200191508051906020019080838360005b83811015610219578181015183820152602001610201565b50505050905090810190601f1680156102465780820380516001836020036101000a031916815260200191505b509550505050505060405180910390f35b6100d16004803603602081101561026d57600080fd5b50356104c0565b606060008054806020026020016040519081016040528092919081815260200182805480156102cc57602002820191906000526020600020905b81546001600160a01b031681526001909101906020018083116102ae575b5050505050905090565b600081815481106102e357fe5b6000918252602090912001546001600160a01b0316905081565b610306816104db565b50565b606060008080805b6000548110156104b757856001600160a01b03166000828154811061033257fe5b6000918252602090912001546001600160a01b031614156104af576000818154811061035a57fe5b600091825260208220015460408051631b80ac7560e11b815290516001600160a01b039092169263370158ea92600480840193829003018186803b1580156103a157600080fd5b505afa1580156103b5573d6000803e3d6000fd5b505050506040513d6000823e601f3d908101601f1916820160405260808110156103de57600080fd5b81019080805160405193929190846401000000008211156103fe57600080fd5b90830190602082018581111561041357600080fd5b825164010000000081118282018810171561042d57600080fd5b82525081516020918201929091019080838360005b8381101561045a578181015183820152602001610442565b50505050905090810190601f1680156104875780820380516001836020036101000a031916815260200191505b506040908152602082015190820151606090920151949950975095509193506104b992505050565b600101610311565b505b9193509193565b6001602052600090815260409020546001600160a01b031681565b60008142336040516104ec90610649565b80806020018463ffffffff168152602001836001600160a01b03168152602001828103825285818151815260200191508051906020019080838360005b83811015610541578181015183820152602001610529565b50505050905090810190601f16801561056e5780820380516001836020036101000a031916815260200191505b50945050505050604051809103906000f080158015610591573d6000803e3d6000fd5b5060008054600180820183557f290decd9548b62a8d60345a988386fc84ba6bc95484008f6362f93160ef3e56390910180546001600160a01b03199081166001600160a01b038616908117909255835460001901808552602084815260408087208054339516851790559286526002815294829020805490940190935580519182525193945090927ffd0d87c99f5a790a851fd21b54af52a22bf2ce586122ee5594770802f22843ad929181900390910190a1505050565b610784806106578339019056fe608060405234801561001057600080fd5b506040516107843803806107848339818101604052606081101561003357600080fd5b810190808051604051939291908464010000000082111561005357600080fd5b90830190602082018581111561006857600080fd5b825164010000000081118282018810171561008257600080fd5b82525081516020918201929091019080838360005b838110156100af578181015183820152602001610097565b50505050905090810190601f1680156100dc5780820380516001836020036101000a031916815260200191505b5060409081526020828101519290910151855192945092506101039160009186019061014d565b50600180546001600160a01b0390921664010000000002600160201b600160c01b031963ffffffff90941663ffffffff1990931692909217929092161790555060006003556101e0565b828054600181600116156101000203166002900490600052602060002090601f016020900481019282601f1061018e57805160ff19168380011785556101bb565b828001600101855582156101bb579182015b828111156101bb5782518255916020019190600101906101a0565b506101c79291506101cb565b5090565b5b808211156101c757600081556001016101cc565b610595806101ef6000396000f3fe608060405234801561001057600080fd5b506004361061007d5760003560e01c8063370158ea1161005b578063370158ea1461013a5780638da5cb5b146101de578063e50ff99c14610202578063f721fa5a1461022a5761007d565b806305b344101461008257806306fdde03146100a35780630e8670e014610120575b600080fd5b61008a610247565b6040805163ffffffff9092168252519081900360200190f35b6100ab610253565b6040805160208082528351818301528351919283929083019185019080838360005b838110156100e55781810151838201526020016100cd565b50505050905090810190601f1680156101125780820380516001836020036101000a031916815260200191505b509250505060405180910390f35b6101286102e1565b60408051918252519081900360200190f35b6101426102e7565b60405180806020018563ffffffff168152602001846001600160a01b03168152602001838152602001828103825286818151815260200191508051906020019080838360005b838110156101a0578181015183820152602001610188565b50505050905090810190601f1680156101cd5780820380516001836020036101000a031916815260200191505b509550505050505060405180910390f35b6101e66103b1565b604080516001600160a01b039092168252519081900360200190f35b6102286004803603602081101561021857600080fd5b50356001600160a01b03166103c8565b005b6101e66004803603602081101561024057600080fd5b5035610538565b60015463ffffffff1681565b6000805460408051602060026001851615610100026000190190941693909304601f810184900484028201840190925281815292918301828280156102d95780601f106102ae576101008083540402835291602001916102d9565b820191906000526020600020905b8154815290600101906020018083116102bc57829003601f168201915b505050505081565b60035481565b6001805460035460008054604080516020600261010098851615989098026000190190931696909604601f8101839004830287018301909152808652606095929485948594859463ffffffff8416946401000000009094046001600160a01b031693869183018282801561039c5780601f106103715761010080835404028352916020019161039c565b820191906000526020600020905b81548152906001019060200180831161037f57829003601f168201915b50505050509350935093509350935090919293565b60015464010000000090046001600160a01b031681565b806001600160a01b031663a035b1fe6040518163ffffffff1660e01b815260040160206040518083038186803b15801561040157600080fd5b505afa158015610415573d6000803e3d6000fd5b505050506040513d602081101561042b57600080fd5b505160035410610482576040805162461bcd60e51b815260206004820152601e60248201527f546865726520616c7265616479206973206120686967686572206269642e0000604482015290519081900360640190fd5b600280546001810182556000919091527f405787fa12a823e0f2b7631cc41b3ba8828b3321ca811111fa75cd3aa3bb5ace0180546001600160a01b0319166001600160a01b0383169081179091556040805163501ad8ff60e11b8152905163a035b1fe91600480820192602092909190829003018186803b15801561050657600080fd5b505afa15801561051a573d6000803e3d6000fd5b505050506040513d602081101561053057600080fd5b505160035550565b6002818154811061054557fe5b6000918252602090912001546001600160a01b031690508156fea2646970667358221220219ead4b3e22c8a68e4e3bb8485a8a560deb130a35a6c278d41351deae00053f64736f6c63430007030033a2646970667358221220ad9ebae5137e1272b7cd15108411f7526c4e0a607ca8df5cdd4b57e8ed138c4b64736f6c63430007030033",
  "linkReferences": {},
  "deployedLinkReferences": {}
}