{
  "_format": "hh-sol-artifact-1",
  "contractName": "OverbidBase",
  "sourceName": "contracts/OverbidBase.sol",
  "abi": [
    {
      "anonymous": false,
      "inputs": [
        {
          "indexed": true,
          "internalType": "address",
          "name": "owner",
          "type": "address"
        },
        {
          "indexed": true,
          "internalType": "address",
          "name": "bid",
          "type": "address"
        },
        {
          "indexed": false,
          "internalType": "uint256",
          "name": "id",
          "type": "uint256"
        },
        {
          "indexed": false,
          "internalType": "uint256",
          "name": "price",
          "type": "uint256"
        }
      ],
      "name": "overbidCreated",
      "type": "event"
    },
    {
      "inputs": [
        {
          "internalType": "uint256",
          "name": "",
          "type": "uint256"
        }
      ],
      "name": "bidToOwner",
      "outputs": [
        {
          "internalType": "address",
          "name": "",
          "type": "address"
        }
      ],
      "stateMutability": "view",
      "type": "function"
    },
    {
      "inputs": [
        {
          "internalType": "uint256",
          "name": "_price",
          "type": "uint256"
        },
        {
          "internalType": "address",
          "name": "_bid",
          "type": "address"
        }
      ],
      "name": "createOverbid",
      "outputs": [],
      "stateMutability": "nonpayable",
      "type": "function"
    },
    {
      "inputs": [
        {
          "internalType": "address",
          "name": "_bid",
          "type": "address"
        }
      ],
      "name": "getOverbidByBid",
      "outputs": [
        {
          "internalType": "uint256[]",
          "name": "",
          "type": "uint256[]"
        }
      ],
      "stateMutability": "view",
      "type": "function"
    },
    {
      "inputs": [
        {
          "internalType": "uint256",
          "name": "_id",
          "type": "uint256"
        }
      ],
      "name": "info",
      "outputs": [
        {
          "internalType": "uint256",
          "name": "id",
          "type": "uint256"
        },
        {
          "internalType": "uint256",
          "name": "price",
          "type": "uint256"
        },
        {
          "internalType": "address",
          "name": "bid",
          "type": "address"
        }
      ],
      "stateMutability": "view",
      "type": "function"
    }
  ],
  "bytecode": "0x608060405234801561001057600080fd5b506104c1806100206000396000f3fe608060405234801561001057600080fd5b506004361061004c5760003560e01c80632e34059914610051578063dd5b627314610095578063ef406ea6146100ce578063f5aa0bc114610144575b600080fd5b61006e6004803603602081101561006757600080fd5b5035610172565b6040805193845260208401929092526001600160a01b031682820152519081900360600190f35b6100b2600480360360208110156100ab57600080fd5b50356101ec565b604080516001600160a01b039092168252519081900360200190f35b6100f4600480360360208110156100e457600080fd5b50356001600160a01b0316610207565b60408051602080825283518183015283519192839290830191858101910280838360005b83811015610130578181015183820152602001610118565b505050509050019250505060405180910390f35b6101706004803603604081101561015a57600080fd5b50803590602001356001600160a01b03166102a4565b005b600080600080848154811061018357fe5b906000526020600020906003020160000154600085815481106101a257fe5b906000526020600020906003020160010154600086815481106101c157fe5b600091825260209091206002600390920201015491945092506001600160a01b031690509193909250565b6001602052600090815260409020546001600160a01b031681565b604080516001808252818301909252606091829190602080830190803683370190505090506000805b60005481101561029b57846001600160a01b03166000828154811061025157fe5b60009182526020909120600260039092020101546001600160a01b03161415610293578083838151811061028157fe5b60209081029190910101526001909101905b600101610230565b50909392505050565b6102ae82826102b2565b5050565b6102ba610461565b60405180606001604052806102ce85610433565b815260208082018690526001600160a01b038581166040938401526000805460018101825581805285517f290decd9548b62a8d60345a988386fc84ba6bc95484008f6362f93160ef3e563600390920291820155928501517f290decd9548b62a8d60345a988386fc84ba6bc95484008f6362f93160ef3e564840155928401517f290decd9548b62a8d60345a988386fc84ba6bc95484008f6362f93160ef3e56590920180546001600160a01b031916929091169190911790558054919250600019820191839190839081106103a057fe5b6000918252602091829020835160039290920201908155828201516001820155604092830151600290910180546001600160a01b0319166001600160a01b0392831617905584830151855186840151855191825293810193909352835191169233927fb30a02fce1f8b812a91b6fedd5e34e705b8f15bf994a83e5a21fc32c1d5f71a3929081900390910190a350505050565b604080516020808201939093528151808203840181529082019091528051910120662386f26fc10000900690565b6040518060600160405280600081526020016000815260200160006001600160a01b03168152509056fea2646970667358221220d0a48aab27b341f1867d11a9e1141897ce7dc25e1df8845c9ce7642f55b28b8c64736f6c63430007030033",
  "linkReferences": {},
  "deployedLinkReferences": {}
}