{
  "_format": "hh-sol-artifact-1",
  "contractName": "OverbidBase",
  "sourceName": "contracts/OverbidBase.sol",
  "abi": [
    {
      "inputs": [
        {
          "internalType": "uint256",
          "name": "_price",
          "type": "uint256"
        },
        {
          "internalType": "contract BidBase",
          "name": "_bid",
          "type": "address"
        },
        {
          "internalType": "address",
          "name": "_owner",
          "type": "address"
        }
      ],
      "stateMutability": "nonpayable",
      "type": "constructor"
    },
    {
      "inputs": [],
      "name": "price",
      "outputs": [
        {
          "internalType": "uint256",
          "name": "",
          "type": "uint256"
        }
      ],
      "stateMutability": "view",
      "type": "function"
    }
  ],
  "bytecode": "0x608060405234801561001057600080fd5b506040516101053803806101058339818101604052606081101561003357600080fd5b5080516020820151604090920151600091909155600180546001600160a01b039384166001600160a01b031991821617909155600280549390921692169190911790556081806100846000396000f3fe6080604052348015600f57600080fd5b506004361060285760003560e01c8063a035b1fe14602d575b600080fd5b60336045565b60408051918252519081900360200190f35b6000548156fea2646970667358221220afd0d1167a39523eac31e9aec8f09fdd129977c3f59ad0650f946af8988cfcaa64736f6c63430007030033",
  "linkReferences": {},
  "deployedLinkReferences": {}
}