{
  "_format": "hh-sol-artifact-1",
  "contractName": "BidBase",
  "sourceName": "contracts/BidBase.sol",
  "abi": [
    {
      "inputs": [
        {
          "internalType": "string",
          "name": "_name",
          "type": "string"
        },
        {
          "internalType": "uint32",
          "name": "_creationDate",
          "type": "uint32"
        },
        {
          "internalType": "address",
          "name": "_owner",
          "type": "address"
        }
      ],
      "stateMutability": "nonpayable",
      "type": "constructor"
    },
    {
      "inputs": [
        {
          "internalType": "contract OverbidBase",
          "name": "overbid",
          "type": "address"
        }
      ],
      "name": "addOverBid",
      "outputs": [],
      "stateMutability": "nonpayable",
      "type": "function"
    },
    {
      "inputs": [],
      "name": "creationDate",
      "outputs": [
        {
          "internalType": "uint32",
          "name": "",
          "type": "uint32"
        }
      ],
      "stateMutability": "view",
      "type": "function"
    },
    {
      "inputs": [],
      "name": "highestPrice",
      "outputs": [
        {
          "internalType": "uint256",
          "name": "",
          "type": "uint256"
        }
      ],
      "stateMutability": "view",
      "type": "function"
    },
    {
      "inputs": [],
      "name": "info",
      "outputs": [
        {
          "internalType": "string",
          "name": "_name",
          "type": "string"
        },
        {
          "internalType": "uint32",
          "name": "_creationDate",
          "type": "uint32"
        },
        {
          "internalType": "address",
          "name": "_owner",
          "type": "address"
        },
        {
          "internalType": "uint256",
          "name": "_highestPrice",
          "type": "uint256"
        }
      ],
      "stateMutability": "view",
      "type": "function"
    },
    {
      "inputs": [],
      "name": "name",
      "outputs": [
        {
          "internalType": "string",
          "name": "",
          "type": "string"
        }
      ],
      "stateMutability": "view",
      "type": "function"
    },
    {
      "inputs": [
        {
          "internalType": "uint256",
          "name": "",
          "type": "uint256"
        }
      ],
      "name": "overbids",
      "outputs": [
        {
          "internalType": "contract OverbidBase",
          "name": "",
          "type": "address"
        }
      ],
      "stateMutability": "view",
      "type": "function"
    },
    {
      "inputs": [],
      "name": "owner",
      "outputs": [
        {
          "internalType": "address",
          "name": "",
          "type": "address"
        }
      ],
      "stateMutability": "view",
      "type": "function"
    }
  ],
  "bytecode": "0x608060405234801561001057600080fd5b506040516107843803806107848339818101604052606081101561003357600080fd5b810190808051604051939291908464010000000082111561005357600080fd5b90830190602082018581111561006857600080fd5b825164010000000081118282018810171561008257600080fd5b82525081516020918201929091019080838360005b838110156100af578181015183820152602001610097565b50505050905090810190601f1680156100dc5780820380516001836020036101000a031916815260200191505b5060409081526020828101519290910151855192945092506101039160009186019061014d565b50600180546001600160a01b0390921664010000000002600160201b600160c01b031963ffffffff90941663ffffffff1990931692909217929092161790555060006003556101e0565b828054600181600116156101000203166002900490600052602060002090601f016020900481019282601f1061018e57805160ff19168380011785556101bb565b828001600101855582156101bb579182015b828111156101bb5782518255916020019190600101906101a0565b506101c79291506101cb565b5090565b5b808211156101c757600081556001016101cc565b610595806101ef6000396000f3fe608060405234801561001057600080fd5b506004361061007d5760003560e01c8063370158ea1161005b578063370158ea1461013a5780638da5cb5b146101de578063e50ff99c14610202578063f721fa5a1461022a5761007d565b806305b344101461008257806306fdde03146100a35780630e8670e014610120575b600080fd5b61008a610247565b6040805163ffffffff9092168252519081900360200190f35b6100ab610253565b6040805160208082528351818301528351919283929083019185019080838360005b838110156100e55781810151838201526020016100cd565b50505050905090810190601f1680156101125780820380516001836020036101000a031916815260200191505b509250505060405180910390f35b6101286102e1565b60408051918252519081900360200190f35b6101426102e7565b60405180806020018563ffffffff168152602001846001600160a01b03168152602001838152602001828103825286818151815260200191508051906020019080838360005b838110156101a0578181015183820152602001610188565b50505050905090810190601f1680156101cd5780820380516001836020036101000a031916815260200191505b509550505050505060405180910390f35b6101e66103b1565b604080516001600160a01b039092168252519081900360200190f35b6102286004803603602081101561021857600080fd5b50356001600160a01b03166103c8565b005b6101e66004803603602081101561024057600080fd5b5035610538565b60015463ffffffff1681565b6000805460408051602060026001851615610100026000190190941693909304601f810184900484028201840190925281815292918301828280156102d95780601f106102ae576101008083540402835291602001916102d9565b820191906000526020600020905b8154815290600101906020018083116102bc57829003601f168201915b505050505081565b60035481565b6001805460035460008054604080516020600261010098851615989098026000190190931696909604601f8101839004830287018301909152808652606095929485948594859463ffffffff8416946401000000009094046001600160a01b031693869183018282801561039c5780601f106103715761010080835404028352916020019161039c565b820191906000526020600020905b81548152906001019060200180831161037f57829003601f168201915b50505050509350935093509350935090919293565b60015464010000000090046001600160a01b031681565b806001600160a01b031663a035b1fe6040518163ffffffff1660e01b815260040160206040518083038186803b15801561040157600080fd5b505afa158015610415573d6000803e3d6000fd5b505050506040513d602081101561042b57600080fd5b505160035410610482576040805162461bcd60e51b815260206004820152601e60248201527f546865726520616c7265616479206973206120686967686572206269642e0000604482015290519081900360640190fd5b600280546001810182556000919091527f405787fa12a823e0f2b7631cc41b3ba8828b3321ca811111fa75cd3aa3bb5ace0180546001600160a01b0319166001600160a01b0383169081179091556040805163501ad8ff60e11b8152905163a035b1fe91600480820192602092909190829003018186803b15801561050657600080fd5b505afa15801561051a573d6000803e3d6000fd5b505050506040513d602081101561053057600080fd5b505160035550565b6002818154811061054557fe5b6000918252602090912001546001600160a01b031690508156fea2646970667358221220219ead4b3e22c8a68e4e3bb8485a8a560deb130a35a6c278d41351deae00053f64736f6c63430007030033",
  "linkReferences": {},
  "deployedLinkReferences": {}
}