{
  "_format": "hh-sol-artifact-1",
  "contractName": "BidBase",
  "sourceName": "contracts/BidBase.sol",
  "abi": [
    {
      "anonymous": false,
      "inputs": [
        {
          "indexed": true,
          "internalType": "address",
          "name": "owner",
          "type": "address"
        },
        {
          "indexed": false,
          "internalType": "uint256",
          "name": "bidId",
          "type": "uint256"
        },
        {
          "indexed": false,
          "internalType": "string",
          "name": "name",
          "type": "string"
        },
        {
          "indexed": false,
          "internalType": "uint32",
          "name": "creationDate",
          "type": "uint32"
        }
      ],
      "name": "BidCreated",
      "type": "event"
    },
    {
      "inputs": [
        {
          "internalType": "uint256",
          "name": "",
          "type": "uint256"
        }
      ],
      "name": "bidToOwner",
      "outputs": [
        {
          "internalType": "address",
          "name": "",
          "type": "address"
        }
      ],
      "stateMutability": "view",
      "type": "function"
    },
    {
      "inputs": [
        {
          "internalType": "uint256",
          "name": "",
          "type": "uint256"
        }
      ],
      "name": "bids",
      "outputs": [
        {
          "internalType": "uint256",
          "name": "id",
          "type": "uint256"
        },
        {
          "internalType": "string",
          "name": "name",
          "type": "string"
        },
        {
          "internalType": "uint32",
          "name": "creationDate",
          "type": "uint32"
        }
      ],
      "stateMutability": "view",
      "type": "function"
    },
    {
      "inputs": [
        {
          "internalType": "string",
          "name": "_name",
          "type": "string"
        }
      ],
      "name": "createBid",
      "outputs": [],
      "stateMutability": "nonpayable",
      "type": "function"
    },
    {
      "inputs": [
        {
          "internalType": "address",
          "name": "_owner",
          "type": "address"
        }
      ],
      "name": "getBidsByOwner",
      "outputs": [
        {
          "internalType": "uint256[]",
          "name": "",
          "type": "uint256[]"
        }
      ],
      "stateMutability": "view",
      "type": "function"
    },
    {
      "inputs": [
        {
          "internalType": "uint256",
          "name": "_id",
          "type": "uint256"
        }
      ],
      "name": "info",
      "outputs": [
        {
          "internalType": "uint256",
          "name": "id",
          "type": "uint256"
        },
        {
          "internalType": "string",
          "name": "name",
          "type": "string"
        },
        {
          "internalType": "uint32",
          "name": "creationDate",
          "type": "uint32"
        }
      ],
      "stateMutability": "view",
      "type": "function"
    }
  ],
  "bytecode": "0x608060405234801561001057600080fd5b5061087f806100206000396000f3fe608060405234801561001057600080fd5b50600436106100575760003560e01c80632e3405991461005c5780634423c5f11461010557806366b9f22514610122578063dd5b627314610198578063f92339c8146101d1575b600080fd5b6100796004803603602081101561007257600080fd5b5035610279565b60405180848152602001806020018363ffffffff168152602001828103825284818151815260200191508051906020019080838360005b838110156100c85781810151838201526020016100b0565b50505050905090810190601f1680156100f55780820380516001836020036101000a031916815260200191505b5094505050505060405180910390f35b6100796004803603602081101561011b57600080fd5b503561037c565b6101486004803603602081101561013857600080fd5b50356001600160a01b0316610451565b60408051602080825283518183015283519192839290830191858101910280838360005b8381101561018457818101518382015260200161016c565b505050509050019250505060405180910390f35b6101b5600480360360208110156101ae57600080fd5b5035610512565b604080516001600160a01b039092168252519081900360200190f35b610277600480360360208110156101e757600080fd5b81019060208101813564010000000081111561020257600080fd5b82018360208201111561021457600080fd5b8035906020019184600183028401116401000000008311171561023657600080fd5b91908080601f01602080910402602001604051908101604052809392919081815260200183838082843760009201919091525092955061052d945050505050565b005b60006060600080848154811061028b57fe5b906000526020600020906003020160000154600085815481106102aa57fe5b9060005260206000209060030201600101600086815481106102c857fe5b60009182526020918290206002600390920201810154835460408051601f6000196001851615610100020190931694909404918201859004850284018501905280835263ffffffff909116928491908301828280156103685780601f1061033d57610100808354040283529160200191610368565b820191906000526020600020905b81548152906001019060200180831161034b57829003601f168201915b505050505091509250925092509193909250565b6000818154811061038957fe5b9060005260206000209060030201600091509050806000015490806001018054600181600116156101000203166002900480601f01602080910402602001604051908101604052809291908181526020018280546001816001161561010002031660029004801561043b5780601f106104105761010080835404028352916020019161043b565b820191906000526020600020905b81548152906001019060200180831161041e57829003601f168201915b5050506002909301549192505063ffffffff1683565b6001600160a01b038116600090815260026020526040902054606090819067ffffffffffffffff8111801561048557600080fd5b506040519080825280602002602001820160405280156104af578160200160208202803683370190505b5090506000805b600054811015610509576000818152600160205260409020546001600160a01b038681169116141561050157808383815181106104ef57fe5b60209081029190910101526001909101905b6001016104b6565b50909392505050565b6001602052600090815260409020546001600160a01b031681565b61053681610539565b50565b61054161078f565b604051806060016040528061055584610701565b815260208082018590524263ffffffff166040909201919091526000805460018101825590805282517f290decd9548b62a8d60345a988386fc84ba6bc95484008f6362f93160ef3e5636003909202918201908155838301518051949550859491936105e6937f290decd9548b62a8d60345a988386fc84ba6bc95484008f6362f93160ef3e56401929101906107b6565b506040918201516002918201805463ffffffff191663ffffffff9283161790556000805460001901808252600160208181528684208054336001600160a01b031990911681179091558085529581528684208054909201909155865187820151888801518851838152968116988701989098526060868401818152825191880191909152815194987fae95e1b046adc67f836a1cc6178d0052f7e91a2aa16aebd0a72504a7a713240e9793969295909491926080850192870191908190849084905b838110156106c05781810151838201526020016106a8565b50505050905090810190601f1680156106ed5780820380516001836020036101000a031916815260200191505b5094505050505060405180910390a2505050565b600080826040516020018082805190602001908083835b602083106107375780518252601f199092019160209182019101610718565b6001836020036101000a0380198251168184511680821785525050505050509050019150506040516020818303038152906040528051906020012060001c9050662386f26fc10000818161078757fe5b069392505050565b60405180606001604052806000815260200160608152602001600063ffffffff1681525090565b828054600181600116156101000203166002900490600052602060002090601f016020900481019282601f106107f757805160ff1916838001178555610824565b82800160010185558215610824579182015b82811115610824578251825591602001919060010190610809565b50610830929150610834565b5090565b5b80821115610830576000815560010161083556fea2646970667358221220f6657e2b35ade8a7dfabf27edceaf87aab911b4d916a990ff7bbd3b057fbd25e64736f6c63430007030033",
  "linkReferences": {},
  "deployedLinkReferences": {}
}